{
  "contractName": "TestContract",
  "abi": [
    {
      "constant": true,
      "inputs": [
        {
          "name": "",
          "type": "address"
        }
      ],
      "name": "balances",
      "outputs": [
        {
          "name": "",
          "type": "uint256"
        }
      ],
      "payable": false,
      "stateMutability": "view",
      "type": "function"
    },
    {
      "constant": true,
      "inputs": [],
      "name": "wallet",
      "outputs": [
        {
          "name": "",
          "type": "address"
        }
      ],
      "payable": false,
      "stateMutability": "view",
      "type": "function"
    },
    {
      "inputs": [
        {
          "name": "_wallet",
          "type": "address"
        }
      ],
      "payable": false,
      "stateMutability": "nonpayable",
      "type": "constructor"
    },
    {
      "anonymous": false,
      "inputs": [
        {
          "indexed": true,
          "name": "_buyer",
          "type": "address"
        },
        {
          "indexed": true,
          "name": "_receiver",
          "type": "address"
        },
        {
          "indexed": false,
          "name": "_amount",
          "type": "uint256"
        }
      ],
      "name": "Purchase",
      "type": "event"
    },
    {
      "constant": false,
      "inputs": [],
      "name": "buyToken",
      "outputs": [],
      "payable": true,
      "stateMutability": "payable",
      "type": "function"
    },
    {
      "constant": false,
      "inputs": [
        {
          "name": "_innerContract",
          "type": "address"
        }
      ],
      "name": "checkSender",
      "outputs": [],
      "payable": false,
      "stateMutability": "nonpayable",
      "type": "function"
    }
  ],
  "bytecode": "0x608060405234801561001057600080fd5b506040516020806104748339810180604052602081101561003057600080fd5b810190808051906020019092919050505080600160006101000a81548173ffffffffffffffffffffffffffffffffffffffff021916908373ffffffffffffffffffffffffffffffffffffffff160217905550506103e2806100926000396000f3fe608060405260043610610062576000357c0100000000000000000000000000000000000000000000000000000000900463ffffffff16806308bc451e1461006757806327e235e3146100b8578063521eb2731461011d578063a482171914610174575b600080fd5b34801561007357600080fd5b506100b66004803603602081101561008a57600080fd5b81019080803573ffffffffffffffffffffffffffffffffffffffff16906020019092919050505061017e565b005b3480156100c457600080fd5b50610107600480360360208110156100db57600080fd5b81019080803573ffffffffffffffffffffffffffffffffffffffff169060200190929190505050610234565b6040518082815260200191505060405180910390f35b34801561012957600080fd5b5061013261024c565b604051808273ffffffffffffffffffffffffffffffffffffffff1673ffffffffffffffffffffffffffffffffffffffff16815260200191505060405180910390f35b61017c610272565b005b8073ffffffffffffffffffffffffffffffffffffffff1663525ed90c336040518263ffffffff167c0100000000000000000000000000000000000000000000000000000000028152600401808273ffffffffffffffffffffffffffffffffffffffff1673ffffffffffffffffffffffffffffffffffffffff168152602001915050600060405180830381600087803b15801561021957600080fd5b505af115801561022d573d6000803e3d6000fd5b5050505050565b60006020528060005260406000206000915090505481565b600160009054906101000a900473ffffffffffffffffffffffffffffffffffffffff1681565b6000349050806000803373ffffffffffffffffffffffffffffffffffffffff1673ffffffffffffffffffffffffffffffffffffffff16815260200190815260200160002060008282540192505081905550600160009054906101000a900473ffffffffffffffffffffffffffffffffffffffff1673ffffffffffffffffffffffffffffffffffffffff166108fc349081150290604051600060405180830381858888f1935050505015801561032b573d6000803e3d6000fd5b50600160009054906101000a900473ffffffffffffffffffffffffffffffffffffffff1673ffffffffffffffffffffffffffffffffffffffff163373ffffffffffffffffffffffffffffffffffffffff167f22e3ae3a20c49dce14046235895c7a3ffc0a6a5f3577c370177ad45fa619485d836040518082815260200191505060405180910390a35056fea165627a7a7230582069e5a112f109f029eaa1fec2ffe06d8780d802e0eda9df976af7d3d6faae31a40029",
  "source": "pragma solidity ^0.5.0;\n\nimport './InnerContract.sol';\n\ncontract TestContract {\n  mapping(address => uint256) public balances;\n  address payable public wallet;\n\n  event Purchase(\n    address indexed _buyer,\n    address indexed _receiver,\n    uint256 _amount\n  );\n\n  constructor(address payable _wallet) public {\n    wallet = _wallet;\n  }\n\n  function buyToken() public payable {\n    uint256 amount = msg.value;\n    balances[msg.sender] += amount;\n    wallet.transfer(msg.value);\n    emit Purchase(msg.sender, wallet, amount);\n  }\n\n  function checkSender(address _innerContract) public {\n    //test inner calll\n    InnerContract(_innerContract).checkInnerSender(msg.sender);\n  }\n\n\n}\n\n",
  "sourcePath": "/Users/miko/Desktop/ETHEREUM/blockchain-exchange/src/contracts/playground/TestContract.sol",
  "compiler": {
    "name": "solc",
    "version": "0.5.0+commit.1d4f565a.Emscripten.clang"
  },
  "schemaVersion": "3.0.2",
  "updatedAt": "2019-12-13T15:42:37.355Z",
  "devdoc": {
    "methods": {}
  },
  "userdoc": {
    "methods": {}
  }
}