{
  "contractName": "Timelock",
  "abi": [
    {
      "constant": true,
      "inputs": [],
      "name": "relaseTime",
      "outputs": [
        {
          "name": "",
          "type": "uint256"
        }
      ],
      "payable": false,
      "stateMutability": "view",
      "type": "function"
    },
    {
      "constant": true,
      "inputs": [],
      "name": "beneficiary",
      "outputs": [
        {
          "name": "",
          "type": "address"
        }
      ],
      "payable": false,
      "stateMutability": "view",
      "type": "function"
    },
    {
      "inputs": [
        {
          "name": "_beneficiary",
          "type": "address"
        },
        {
          "name": "_relaseTime",
          "type": "uint256"
        }
      ],
      "payable": true,
      "stateMutability": "payable",
      "type": "constructor"
    },
    {
      "constant": false,
      "inputs": [],
      "name": "relase",
      "outputs": [],
      "payable": false,
      "stateMutability": "nonpayable",
      "type": "function"
    }
  ],
  "bytecode": "0x60806040526040516040806102828339810180604052604081101561002357600080fd5b810190808051906020019092919080519060200190929190505050428111151561004c57600080fd5b816000806101000a81548173ffffffffffffffffffffffffffffffffffffffff021916908373ffffffffffffffffffffffffffffffffffffffff1602179055508060018190555050506101de806100a46000396000f3fe608060405260043610610057576000357c0100000000000000000000000000000000000000000000000000000000900463ffffffff16806314b673f41461005c578063286dae561461007357806338af3eed1461009e575b600080fd5b34801561006857600080fd5b506100716100f5565b005b34801561007f57600080fd5b50610088610187565b6040518082815260200191505060405180910390f35b3480156100aa57600080fd5b506100b361018d565b604051808273ffffffffffffffffffffffffffffffffffffffff1673ffffffffffffffffffffffffffffffffffffffff16815260200191505060405180910390f35b600154421015151561010657600080fd5b6000809054906101000a900473ffffffffffffffffffffffffffffffffffffffff1673ffffffffffffffffffffffffffffffffffffffff166108fc3073ffffffffffffffffffffffffffffffffffffffff16319081150290604051600060405180830381858888f19350505050158015610184573d6000803e3d6000fd5b50565b60015481565b6000809054906101000a900473ffffffffffffffffffffffffffffffffffffffff168156fea165627a7a72305820409c978893da6d8c835fbac0af64162efbe04b70083a47f1f9cba3a5993eb4790029",
  "source": "pragma solidity ^0.5.0;\n\ncontract Timelock {\n  address payable public beneficiary;\n  uint256 public relaseTime;\n\n  constructor(address payable _beneficiary, uint256 _relaseTime) public payable {\n    require(_relaseTime > block.timestamp);\n    beneficiary = _beneficiary;\n    relaseTime = _relaseTime;\n  }\n\n  function relase() public {\n    require(block.timestamp >= relaseTime);\n    address(beneficiary).transfer(address(this).balance);\n  }\n}\n",
  "sourcePath": "/Users/miko/Desktop/ETHEREUM/blockchain-exchange/src/contracts/playground/Timelock.sol",
  "compiler": {
    "name": "solc",
    "version": "0.5.0+commit.1d4f565a.Emscripten.clang"
  },
  "schemaVersion": "3.0.2",
  "updatedAt": "2019-12-13T15:42:37.355Z",
  "devdoc": {
    "methods": {}
  },
  "userdoc": {
    "methods": {}
  }
}